:1000000014C024C023C021C020C01FC01EC01DC0FA
:100010001CC01BC01AC019C018C02CC016C015C007
:1000200014C013C012C011C010C011241FBECFE5F0
:10003000D1E0DEBFCDBF20E0A0E6B0E001C01D9260
:10004000A636B207E1F72FD010C1DACF1F920F9278
:100050000FB60F9211248F939F9381E090E09093BD
:100060006500809364009F918F910F900FBE0F9059
:100070001F9018951F920F920FB60F9211248F9315
:100080009F938091600090916100009729F0019703
:1000900090936100809360009F918F910F900FBEAD
:1000A0000F901F9018958FE787BB9BB780EC89272F
:1000B0008BBF85B7836085BF8EE486BF89B78160BB
:1000C00089BF82E080BF85E083BF8FEF88BF7894CF
:1000D0008AE188BB6AEE73E081E090E0E4E6F0E05C
:1000E000A2E3B0E02091620030916300232B41F441
:1000F000709361006093600090936300809362004E
:1001000020916400309165002130310571F4209117
:10011000600030916100232B41F410926300109233
:10012000620040E02AE130E01EC02AE128BBDACFBD
:10013000C0916200D0916300CD2B59F4B09361005F
:10014000A0936000909363008093620050E12527A4
:100150004F5FC0916000D0916100CD2B21F41092CF
:1001600063001092620028BB473011F710926300C1
:100170001092620028BB2091620030916300232B13
:1001800041F4F0936100E0936000909363008093EA
:1001900062002AE230E04091600050916100452BFE
:1001A00049F7109263001092620028BB2091620010
:1001B00030916300232B41F47093610060936000E1
:1001C000909363008093620025E440916000509119
:1001D0006100452B51F7109263001092620010925B
:1001E00065001092640040E025E430E028BB473011
:1001F000E1F0C0916200D0916300CD2B59F4B0932F
:100200006100A0936000909363008093620055E0CA
:1002100025274F5FC0916000D0916100CD2B31F751
:100220001092630010926200E1CF1092630010926E
:10023000620028BB2091620030916300232B41F4BF
:10024000F0936100E09360009093630080936200FC
:100250002AE430E04091600050916100452B49F75D
:0E026000109263001092620061CFF894FFCFFD
:00000001FF
